:100000000C942A000C9447000C9447000C94470071
:100010000C9447000C9447000C9447000C94470044
:100020000C9447000C9447000C9447000C94470034
:100030000C9447000C9447000C9447000C94470024
:100040000C9447000C9447000C9447000C94470014
:100050000C94470011241FBECFE5D8E0DEBFCDBF12
:1000600010E0A0E6B0E0E0E3F8E002C005900D92F9
:10007000A83AB107D9F720E0A8EAB0E001C01D9284
:10008000A83AB207E1F70E94B9010C9416040C9447
:10009000000061E080E00E94560261E081E00E9481
:1000A000560261E082E00E94560261E083E00C9417
:1000B0005602DF92EF92FF920F931F93CF93DF933D
:1000C00090E6E92E90E0F92ED4E5C0E060E08C2FB8
:1000D0000E94560200E010E084E0D82ED00E8D2D54
:1000E0000E94D702811109C0F701E00FF11FD081F2
:1000F0008D2D0E94D7028823D9F30F5F1F4F043044
:10010000110551F761E08C2F0E945602CF5F84E009
:10011000E80EF11CC430D1F68D2FDF91CF911F91E5
:100120000F91FF90EF90DF900895CF93C82F60E07C
:1001300089E10E9456026C2F82E00E94F40261E085
:1001400088E10E9456028FEC97E00197F1F700C01A
:10015000000060E088E10E9456028FEC97E0019772
:10016000F1F700C00000CF910895CF93C82F61E050
:1001700089E10E9456026C2F82E00E94F40261E045
:1001800088E10E9456028FEC97E00197F1F700C0DA
:10019000000060E088E10E9456028FEC97E0019732
:1001A000F1F700C00000CF9108952FE788E391E0B8
:1001B000215080409040E1F700C0000088E30E9499
:1001C00095008FEC97E00197F1F700C000008CE0FC
:1001D0000E9495008FEC97E00197F1F700C00000B6
:1001E00081E00E9495008FEC97E00197F1F700C045
:1001F000000086E00C9495000C94B5000F931F93BB
:10020000CF938C01C0E0F801EC0FF11D80818823B1
:1002100021F00E94B500CF5FF6CFCF911F910F91D3
:10022000089581E00E9495008FEC97E00197F1F727
:1002300000C000000895FC019F01281B390B41916B
:100240004111FACFC9010895CF93DF93EC010E94C9
:100250001B019C0121503109FE01E80FF91FDE014D
:10026000CD018C1B9D0B281739073CF08C91929186
:100270009D93808321503109F3CFDF91CF91089571
:10028000CF92DF92EF92FF920F931F93CF93DF9362
:10029000FB01009761F480E380831182DF91CF91AD
:1002A0001F910F91FF90EF90DF90CF90089597FFEF
:1002B00006C091958195910901E010E002C000E02F
:1002C00010E07F01C0E0D0E02AE0C22ED12CB601C0
:1002D0000E94EE03805DD7018D937D019E012F5F0B
:1002E0003F4FCB01009711F0E901F1CF013011052B
:1002F00039F4DF01A20FB31F8DE28C932F5F3F4FC4
:10030000DF01A20FB31F1C92CF01DF91CF911F918C
:100310000F91FF90EF90DF90CF900C942401CF933A
:10032000DF93CDB7DEB760970FB6F894DEBF0FBE90
:10033000CDBFDC01CB01BE016F5F7F4F0E9440014A
:10034000CE0101960E94FE0060960FB6F894DEBFC3
:100350000FBECDBFDF91CF910895811103C0862FCD
:10036000806804C0813021F4862F806C0C94950045
:1003700008950E9404030E94D50080E790E00E9447
:10038000FE002FE788E391E0215080409040E1F7A4
:1003900000C000000E9411010E944900C0E0C12C71
:1003A000D12C7601B12CD0E010E00E945900082F2A
:1003B00080EDA82EA00E29E02A1558F0B11013C028
:1003C000802F0E94FC008AE0189FA00C11241A2D97
:1003D00015C00B32E1F48BE20E94FC00CBE229E075
:1003E0002A1508F460C0802F0E94FC009AE0D99F73
:1003F000A00C1124DA2D57C00D3391F00336A9F665
:100400000E94110160E080E00E94AD01C7CF0C3274
:10041000D8F50A3289F78AE20E94FC00CAE2DFCFEF
:1004200060E081E00E94AD01CB3261F030F4CA326D
:1004300031F51D9F600111240EC0CD3241F0CF3245
:1004400079F01DC0CD2ED12CC10ED11C04C0C12EFF
:10045000D12CCD1AD1080D2C000CEE08FF080FC0CE
:10046000D11105C081E890E00E94FE0008C0812FF4
:100470006D2F0E94E203C82ED12CE12CF12CC70174
:10048000B6010E948F0191CF0D3229F48DE20E94B6
:10049000FC00CDE2A4CF0F3209F0AECF8FE20E9474
:1004A000FC00CFE29CCFBB24B394A8CF982F9695A5
:1004B0009695969587706130C1F5913091F028F04E
:1004C0009230D9F0933029F108954BB321E030E018
:1004D000B90102C0660F771F8A95E2F7CB01842B22
:1004E0003AC048B321E030E0B90102C0660F771F7F
:1004F0008A95E2F7CB01842B3CC045B321E030E084
:10050000B90102C0660F771F8A95E2F7CB01842BF1
:100510003EC042B321E030E0B90102C0660F771F50
:100520008A95E2F7CB01842B40C061113FC0913026
:10053000A1F028F09230F9F0933059F108954BB3BF
:1005400021E030E0B90102C0660F771F8A95E2F71B
:10055000CB01809584238BBB089548B321E030E024
:10056000B90102C0660F771F8A95E2F7CB0180952B
:10057000842388BB089545B321E030E0B90102C06F
:10058000660F771F8A95E2F7CB018095842385BBA0
:10059000089542B321E030E0B90102C0660F771F31
:1005A0008A95E2F7CB018095842382BB0895282F9A
:1005B0002770869586958695813049F030F0823097
:1005C00041F0833079F480B305C089B303C086B3AA
:1005D00001C083B390E002C0959587952A95E2F714
:1005E0008170089580E00895813041F028F08230D4
:1005F00039F0833039F008956BBB089568BB0895D6
:1006000065BB089562BB0895E7E8F0E040E081E053
:1006100090E05191342F369536953695242F2770DA
:10062000513009F443C020F0523009F482C0C5C0F3
:10063000323001F1333061F1313071F05AB3BC0125
:1006400002C0660F771F2A95E2F79B01352F322BE8
:100650003ABB3BB320953DC057B3BC0102C0660F07
:10066000771F2A95E2F79B01352F322B37BB38B322
:1006700020953EC054B3BC0102C0660F771F2A9577
:10068000E2F79B01352F322B34BB35B320953FC0A9
:1006900051B3BC0102C0660F771F2A95E2F79B0198
:1006A000352F322B31BB32B3209541C0323011F19E
:1006B000333081F1313079F05AB3BC0102C0660F9A
:1006C000771F2A95E2F79B012095352F32233ABBFD
:1006D0003BB3232342C057B3BC0102C0660F771F50
:1006E0002A95E2F79B012095352F322337BB38B38B
:1006F000232343C054B3BC0102C0660F771F2A9561
:10070000E2F79B012095352F322334BB35B32323E9
:1007100025BB53C051B3BC0102C0660F771F2A9599
:10072000E2F79B012095352F322331BB32B32323CF
:1007300043C0323021F1333089F1313081F05AB386
:10074000BC0102C0660F771F2A95E2F79B01362F86
:10075000309535233ABB3BB3232B2BBB2EC057B36D
:10076000BC0102C0660F771F2A95E2F79B01362F66
:100770003095352337BB38B3232B28BB1EC054B369
:10078000BC0102C0660F771F2A95E2F79B01362F46
:100790003095352334BB35B3232BBACF51B3BC01CD
:1007A00002C0660F771F2A95E2F79B01362F30951E
:1007B000352331BB32B3232B22BB4F5F403209F0CC
:1007C00028CF0895991B79E004C0991F961708F067
:1007D000961B881F7A95C9F78095089597FB072E79
:1007E00016F4009407D077FD09D00E94020407FC9C
:1007F00005D03EF4909581959F4F08957095619531
:100800007F4F0895AA1BBB1B51E107C0AA1FBB1F46
:10081000A617B70710F0A61BB70B881F991F5A958C
:10082000A9F780959095BC01CD010895F894FFCF6C
:100830003738392F3435362A3132332D63303D2B5A
:1008400046617265732043616C63756C61746F728D
:10085000004552524F520000000000020202020006
:100860000000000000000000000000000000000088
:08087000000202020200000078
:00000001FF
